:020000000C945E
:100002007E000C9400000C9400000C9400000C94F0
:1000120000000C9400000C9400000C9400000C945E
:1000220000000C9400000C9400000C9400000C944E
:1000320000000C9400000C9400000C9400000C943E
:1000420000000C9400000C9400000C9400000C942E
:1000520000000C9479010C9400000C9400000C94A4
:10006200AA060C9400004E6F6D616461730020203B
:100072002020456C656374726F6E69636F7300490B
:10008200656E743A25362E31665B6D415D20202007
:100092002000566261743A2025352E32665B565D29
:1000A20020202020004973616C3A25362E31665B90
:1000B2006D415D20202020005673616C3A20253569
:1000C2002E32665B565D2020202000002D4E414ED0
:1000D2000000070001002D4E414E00494E4600002F
:1000E20008000003680011000803700001001B03F0
:1000F200D40001005A03D6000000F894EE27EFBBAB
:10010200F1E0F5BFE5BF8DE0A2E0BB27ED938A9554
:10011200E9F780E098E0A0E0B1E0ED930197E9F71C
:10012200E2EEF0E085919591009761F0A591B5918D
:1001320005901590BF01F00105900D920197E1F72E
:10014200FB01F0CFE0E0EEBBEFEFEDBFE8E0EEBF8A
:10015200C0E0D3E00C94AE010E943309EF70E29547
:10016200E07F03C00E943309E07F1E2BE12F18813C
:1001720026960895AA93E881E03021F0A4E6B0E043
:100182000E941306A0E078D00E9443094FD084C099
:10019200E1E0E0931F03E0911F03EE0FEE0FEE0F7D
:1001A200AE2F6AD008950E944709E1E00E944D09EE
:1001B20080E89CE00197F1F708950E944709E2E088
:1001C2004E2AE42DE46006C00E944709E4E03E2A7C
:1001D200E32DE860EA93A0E00E9451090895AA93F2
:1001E2001A930E944709A981A03011F4E0E001C0EE
:1001F200E0E41E2FEA811E0FE12FE0680E944D0904
:1002020083E68A95F1F7188123960895AA93E1E08F
:10021200E0931C03E0E0E0931D03E8810E944D0996
:100222008DE68A95F1F7E1E0F0E036C00E944709D9
:10023200E0E3EA93A1E032D080ED90E20197F1F79A
:10024200E0E3EA93A1E02AD08CE291E00197F1F792
:10025200E0E3EA93A1E00E945109E0E2EA93A1E01F
:100262000E945109E8E20E944D0983E68A95F1F75E
:10027200ABDF99DFA2DF0895AA93E7E2EA93FE01DA
:100282003196FA93EA93E1E0EA93E0E0F0E0FA9340
:10029200EA93A0E00E94410621960895AA93E9817B
:1002A200E09320030E9457095DDF0E9460095ADF34
:1002B200AE2FE2DFE881E03059F483E68A95F1F768
:1002C2000E94570949DF0E94600946DFAE2FD4DF42
:1002D2000DC0BA93AA93A881B981EC91E03031F0B4
:1002E200ED91A883B983AE2F91DFF5CF22960895C1
:1002F2008A93AA93BA93EA93FA93EFB7EA93E091B7
:100302004D03A5E4B3E0F0E0EE0FFF1FAE0FBF1FF9
:10031200E0917800F0917900ED93FC93A0914D0368
:10032200AF5FA0934D03A43018F0E0E0E0934D03DB
:10033200E0914D03E05CE0937C008BE18A95F1F75C
:10034200E0917A00E064E0937A00E991EFBFF991DD
:10035200E991B991A99189911895E0E8E09361003A
:10036200E0E0E0936100E4B7E0FD04C0E4B7E1FD42
:1003720001C0E4B7E0E0E4BFE0ECE4B9E0E0E5B9F5
:10038200E7B9E8B9EAB9EBB9E4BDE5BDE6BDE7BD59
:10039200E8BDE0938000E0938100E0938500E09364
:1003A2008400E0938700E0938600E0938900E09365
:1003B2008800E0938B00E0938A00E093B600E0931C
:1003C200B000E093B100E093B200E093B300E09399
:1003D200B400E0936E00E0936F00E0937000E0934E
:1003E2006900EDBBE0936800E093C100E0E8E0BF84
:1003F200E0E0E0937F00E0937E00E0E4E0937C00A5
:10040200EBEEE0937A00E0E0E0937B00ECBDA4E643
:10041200B0E00E9413067894E0917A00E064E093E1
:100422007A00A0E0A7DEB4DE0E946F09A0E0B3E08C
:1004320050DF0E947409A8E0B3E04BDFACEDB5E0F9
:100442000E94E90A55246624E2E3F0E05E166F0694
:1004520074F52E9AF894E0914503F09146030E94B8
:1004620079090E947E09E0914903F0914A030E94B2
:10047200870978940E94910960D00E94B209E1E84C
:10048200F0E00E94BF090E94D009E1E2F3E0FA9392
:10049200EA93E4E9F0E00E94D4090E94D0092E9880
:1004A2000E944309E1E0F0E05E0E6F1ECDCF5524BD
:1004B2006624E2E3F0E05E166F0674F52E9AF89475
:1004C200E0914703F09148030E9479090E947E0956
:1004D200E0914B03F0914C030E94870978940E94AB
:1004E20091091CD00E94B209E7EAF0E00E94BF091C
:1004F2000E94D009E1E2F3E0FA93EA93EAEBF0E03A
:100502000E94D4090E94D0092E980E944309E1E07A
:10051200F0E05E0E6F1ECDCF95CFFFCF0E94E509B2
:10052200A8E0BEEA82E79CE30E94E90BAEE0B5E8F0
:100532008FE49CE30E94990B19C00E94E509A0E197
:10054200B0E48AEE9CE30E94E90BDF01CB01E4EE0A
:10055200F4EF65EF7BE30E94EA0908C00E94EF090D
:10056200EAE0F8E260EA7BE30E94E90B2496089550
:10057200BA93AA931A930A93AA81BB8112960E94F4
:100582001F0D309729F1AA81BB8114960E941F0D7D
:100592008F01309761F00230E0E01E0780F0F80131
:1005A20031978F01AA81BB811496ED93FC93AA81A6
:1005B200BB8112960E94F4093197AC81A083AA8173
:1005C200BB810E941F0DFF2312F00E94F40906C096
:1005D200AA81BB81EFEFFFEFED93FC9319810881B4
:1005E200259608950E94FA09E0E8EA83EFE3EB8397
:1005F2000E945D0DEE85FF85EF3FAFEFFA0749F4EC
:10060200E885F985FA93EA93AEECB0E00E942608F9
:10061200B7C0EF3FAFE7FA0749F4E885F985FA93E7
:10062200EA93AFECB0E00E942608AAC0AB85A730DF
:1006320010F0E6E0EB871B85E12F1150E03019F056
:100642000E94010AF9CFEC85FD856E857F850E94A7
:10065200570D21F430E00E94010A2DC03B850E9413
:10066200100A09F008F40BC00E94010A0E94100A45
:1006720028F00E941B0A0E94200AF8CF0DC00E9497
:10068200100A40F40E941B0A0E942C0A0E94330A9C
:100692003150F5CF0E94010AEC85FD856E857F857C
:1006A2000E94380A0E94330A0E94100A20F00E9417
:1006B2001B0A0E94200A10E0EB85E117A8F1AC8129
:1006C200BD818E819F810E943F0A0E94380ADF010C
:1006D200CB010E947D08EC83FD836E837F830E94A1
:1006E2001B0A0E94370C0E94260B0E2F0E94460AFC
:1006F2000E944D0AFF27662777270E945F0BAC8175
:10070200BD818E819F810E94E90B0E941B0A0E947B
:10071200EA090E94330AE12F1F5FE03069F60E9466
:10072200460AEEE2EC93C8CF0E94520A3197AA859C
:10073200A08330302CF43195A885B985EDE203C051
:10074200A885B985EBE2EC930E94520A0E94520AF4
:100752003197BF01A32FEAE00E94C60CE05DDB01E6
:10076200EC930E94520A3197BF01A32FEAE00E9444
:10077200030DE05DDB01EC93A885B985E0E0EC9325
:100782000E94640D60960895BA93AA93EF976197B9
:100792000E945B0D10E0FE01E85AFF4F0190F081CC
:1007A200E02DE887F987FE01EA5AFF4F0190F081B8
:1007B200E02DEE83FF83AE81BF81E0E0F0E0ED93B8
:1007C200FC93DE01A45ABF4F0E94F4093197E491D1
:1007D2002E2FE03009F4E9C1E12FE03039F425325F
:1007E20011F411E002C00E94580ADEC1E130C1F4E6
:1007F200253219F40E94580AD6C112E0E0E0ED8BCE
:1008020000E02D3211F401E0CFC12B3219F4EBE2FA
:10081200ED8BCAC1203219F4E0E2ED8BC5C102C0F2
:10082200E23039F450E013E0203311F40068BCC127
:1008320002C0E33091F4203310F02A3308F007C0ED
:10084200AAE05A9F502DE22FE0535E0FADC140E067
:100852002E3211F414E0A8C10FC0E43099F4203311
:1008620010F02A3308F008C00062AAE04A9F402D27
:10087200E22FE0534E0F98C12C3619F4026015E0B6
:1008820093C103C0E53009F08FC1E22FE33659F47A
:100892000E945F0A0E94660A0E945F0AA481AA93CC
:1008A2000E946D0A80C1E53411F0E53609F403C0F7
:1008B200E63609F048C0FE017696EE87FF870E9471
:1008C200730A0E94230D0E947A0A0E947F0AAD8554
:1008D200AA2332F0AD89AB3259F0A03281F017C0B1
:1008E2000E94810A0E94F30A0E947A0AEDE2ED8BCD
:1008F20007FF05C0ED89EA930E946D0A08C0EE85E4
:10090200FF853196EE87FF873197AD89A08305FF7A
:1009120046E0263651F40E94810A0E94380D4A931D
:10092200AB89BC890E94920809C00E94810A0E9478
:10093200380D4A932A93AC89BD8954DEFE0176961E
:100942000E94860A1EC0E33739F40E947F0A0E9481
:100952008E0A0E94860A0EC0E037C1F40E947F0A06
:100962000E948E0AEE87FF87AE85BF850E943F08F0
:100972001E2F08600F77403011F0411708F001C0B8
:10098200142F40E0E0E0EC8B30E06DC0E43611F073
:10099200E93611F4046002C0E537A1F4EAE0EC8B19
:1009A20001FF08C0E0E0FAEC6AE97BE30E94930AE7
:1009B2001AE022C0E0E1F7E260E070E00E94930AF0
:1009C20015E01AC0E83511F4086003C0E83709F0F1
:1009D200EAC0E0E1EC8B01FF08C0E0E0F0E060E09B
:1009E20070E10E94930A18E007C0E0E0F0E160E0E5
:1009F20070E00E94930A14E0403011F00F7701C0BA
:100A020041E001FF08C00E947F0A0E94730A149607
:100A12000E94230D0FC002FF07C00E947F0A0E949E
:100A22008E0A0E94AE0C06C00E947F0A0E948E0AA5
:100A320066277727EA87FB876C877D8702FF12C0CC
:100A4200AD85AA2342F40E94810A0E94A00C0E9452
:100A52007A0AEDE2ED8BED89E03019F01F5F4F5F0E
:100A620001C00B7F342F00FD14C0151710F4351789
:100A720008F00FC007FF08C002FF04C00B7F2D89DA
:100A8200115001C020E301C020E20E94580A5150D7
:100A9200ECCF141790F4006102FF06C00E94980A7E
:100AA20009F0515011504150E0E3EA930E946D0A5F
:100AB200503009F051504150ECCF312FEC89E030E9
:100AC200B9F43030A1F003FF06C0EE85FF85259111
:100AD200EE87FF8705C0AE85BF852D91AE87BF87A4
:100AE2000E94580A503009F051503150EACF51C09B
:100AF2000E94AA0A0E94DE0C2E2F2A3030F003FF39
:100B020002C0295C01C0295A01C0205D04FD21C038
:100B1200213360F4A889B9898A899B89A130E0E0F0
:100B2200BE07E0E08E07E0E09E0709F40BC0431722
:100B320040F4531710F000FF01C010C020E207FF7D
:100B420008C020E3006102FF04C00E94980A09F075
:100B520051500E94580A503009F0515031500E94B1
:100B6200AA0A0E940F0D0E947A0AEC89A889B98903
:100B72008A899B89FF27662777270E94DE0C0E94BD
:100B8200930AE889F9896A897B890E94570D09F0DD
:100B9200AFCF00FF08C0503031F05150E0E2EA938D
:100BA2000E946D0AF8CF10E00CCEAE81BF810E9488
:100BB2001F0D0E94620DEF966F960895FF92F82E18
:100BC20026970E945D0D0E94B30A309719F4EFEF49
:100BD200FFEF23C0DE0116960E949C0C8D010E943D
:100BE200B30AEE83FF83E0E0E887E987DE011A9625
:100BF2000E949C0C0E941F0DFA93EA931A930A9387
:100C0200E9EBF2E0FA93EA93DE011A96BDDD9F0169
:100C1200AE81BF81E0E0EC93F9010E94640D2A9657
:100C2200FF900895BA93AA931A93F19AE7E0E0939A
:100C32001B03E0E0E0935603E0935703E09358036D
:100C4200E0935903449A459AE093BC00E091B900BD
:100C5200EC7FE093B900E981FA81A0EABFE00E944B
:100C6200CB0C1E2F183008F018501093B800E091EA
:100C7200BC00E078E564E093BC00188123960895F7
:100C8200AA932497F19B62C0EA85EE0FE0934E038C
:100C9200E885F985E0934F03F0935003E0E0E09399
:100CA2001903EF81E0935103ED81FE81E09352033A
:100CB200F0935303E0E0E0931A03EC81E0935403D2
:100CC200E6E0E0931B037894EF81E03079F0E88569
:100CD200F9853097D9F1EC81E03021F0AD81BE8108
:100CE200109709F001C032C0F09A0DC0EC81E030DB
:100CF20039F1ED81FE81309749F1E0914E03E160D7
:100D0200E0934E03F098F198E091BC00EF70E06A36
:100D1200E093BC00E0E2F1EA67E070E00E94BA0A08
:100D2200F1990EC00E94BD0A3197604070400E9446
:100D3200BA0A29F4E5E0E0931B03F19A07C0F0CF69
:100D4200A0911B03E0E00E94B30C01C0E0E02B96EF
:100D520008950A921A92FA926A937A938A939A93CC
:100D6200AA93BA93EA93FA93EFB7EA930E945B0DC0
:100D720010911A03009119033091510320911B0322
:100D8200E12FA0915203B0915303F0E0EA0FFB1F51
:100D9200AF01E091B900E87FE83011F420E002C031
:100DA200E03119F4E0914E0310C0E83111F0E8325D
:100DB20041F5031798F4E02F0F5FA0914F03B09114
:100DC2005003F0E0AE0FBF1FEC91E093BB00E09147
:100DD200BC00EF70E068E093BC0012C0E0915403E5
:100DE2001E1768F4E0914E03E160E0934E03F09821
:100DF200E091BC00EF70E06AE093BC000DC138C026
:100E02000BC1E03531F4E091BB00DA01EC931F5FD6
:100E120002C0E03489F4E0915403E1501E1728F037
:100E2200E091BC00EF70E06804C0E091BC00EF709C
:100E3200E06CE093BC00F0C0E83531F4E091BB0017
:100E4200DA01EC931F5F02C0E03209F402C0E03322
:100E520009F402C0E83469F4203051F4F09B03C075
:100E6200031728F005C0E09154031E1708F424E08C
:100E7200CCC0E83331F422E0E091BC00EF70E068CE
:100E8200C8C0E83611F0E83711F422E005C0E036B8
:100E920011F0E037A1F420E010E0F098E091550362
:100EA200E03031F421E0E091BC00EF70E06804C072
:100EB200E091BC00EF70E06CE093BC00ADC0E038A4
:100EC20011F0E03939F5F09B02C021E09EC0E091BB
:100ED200BB00DA01EC931F5FE09155031E17C0F4CB
:100EE200E0915603F0915703309711F426E08DC03C
:100EF200A0E0E0915603F09157030995E03039F0F4
:100F0200E091BC00EF70E06CE093BC0085C001C0D2
:100F1200F09A02C0E83809F402C0E83939F4E091E5
:100F2200BC00EF70E068E093BC0076C0E03AB1F438
:100F3200E091BC00EF70E06CE093BC00F19AE091AC
:100F42005603F0915703309739F0A1E0E091560330
:100F5200F0915703099501C026E05EC0E03B11F411
:100F620022E002C0E83AB1F4E0915803F09159034B
:100F7200309759F0A0E0E0915803F0915903099598
:100F82003E2FE03011F020E002C026E03EC000E03B
:100F9200F09802C0E83BF9F4F09B02C021E035C0B2
:100FA200E02F0F5FA0914F03B0915003F0E0AE0F1E
:100FB200BF1FEC91E093BB00031728F4E091BC0043
:100FC200EF70E06C05C0F09AE091BC00EF70E06851
:100FD200E093BC0021C0E03C11F0E83C99F4E091C0
:100FE200BC00EF70E06CE093BC00E0915803F0911C
:100FF2005903309731F0A1E0E0915803F091590381
:10100200099509C0E03041F423E0E091BC00EF70A3
:10101200E06DE093BC00F19A10931A030093190358
:1010220020931B03309351030E94620D2696E9918F
:10103200EFBFF991E991B991A9919991899179912A
:101042006991F990199009901895BA93AA93E99128
:10105200F991A991B991CD0105900D920020E1F786
:10106200FC010895BA93AA93A991B991EE27FF279B
:101072006D91662311F03196FBCF0895BA93AA932E
:10108200AA27BB27E991F9910590002011F011964A
:10109200FBCFFD0108950E943D0D7B816A81F9819C
:1010A200E88177FB770F67FD7160972F9E5781F07C
:1010B20078F0983190F4AA27BB278827089487955F
:1010C200B795A7959A95D1F7EA23FB23682305C024
:1010D200E8947727EE27FF2766276F77769508F43F
:1010E200606877F9A991B99189919991EA17FB07FB
:1010F2006807790797FB08950E94EF090E944C0840
:101102000E94BA0A19F40E94BD0A09C0E6F70E94B9
:10111200BD0AA0E0B0E080E89FE30E94920B249613
:10112200089567D1E0E0EA83EFE3EB831A930A9331
:10113200EB85FC85EF3FAFEFFA0731F420D2A8ED43
:10114200B0E00E9426088AC0EF3FAFE7FA0731F409
:1011520016D2A9EDB0E00E94260880C0AC85AA2371
:1011620052F4E985FA856B857C850E94F30A0CD2DC
:1011720010D2EDE2EC93A885A73010F0E6E0E88704
:101182001885E12F1150E03021F00AD277D10DD22B
:10119200F8CF10D20E94990BF7D110E0E0E0F0E016
:1011A20060E87FE302D206D20E947C0C68F0F8D19C
:1011B20052D1FBD11F5F173230F0E1D1ADEDB0E07B
:1011C2000E9426084BC0EFCF103021F4E2D1E0E3B9
:1011D200EC9320C0E12F1150E030E1F0E1D14ED18B
:1011E20046D1DF01CB010E947D08DFD1E3D10E940D
:1011F200370C0E94260B0E2FCCD14ED1F0E0D0D16D
:101202000E94AE0C0E945F0B0E94E90BDCD1E1D080
:10121200BBD1E0CFE885E030E9F0BBD1EEE2EC9360
:10122200E885E150E887EF5FA9F0CDD114D1ACD1C8
:10123200E985FA856B857C850E94260B0E2FA9D144
:101242002BD1F0E0C0D10E94AE0C0E945F0BC1D046
:101252009BD1E6CFAE81BF81E0E0EC93198108819A
:101262002D9608951A931981EA81EE0F1E2BEB81B8
:10127200EE0FEE0F1E2BEC81EE0FEE0FEE0F1E2B7C
:10128200ED810895A2E3B0E00C94E90AE0E0E09376
:101292001C03E0931D030895EA93A0E00C944F0110
:1012A2000E944F0183E68A95F1F70895E1E0E09309
:1012B2001E03ECE1F3E0A5E00E94420D0895AE2F7B
:1012C2000E943D0183E08A95F1F7E0E0E0931E037E
:1012D200ECE1F3E0A5E00E94420D0895E0E0EA931C
:1012E200A0E00C94F000E0E0EA93A1E00C94F0009E
:1012F200662777270E945F0B0895E0933503F093EA
:10130200360360933703709338030895F1DFE09357
:101312003903F0933A0360933B0370933C030895BF
:10132200A0913503B0913603809137039091380331
:101332000E94AF02A0E0B0E08AE794E40E94E90BC9
:10134200E0933D03F0933E0360933F0370934003A9
:10135200A0913903B0913A0380913B0390913C03F1
:101362000895E0934103F093420360934303709323
:101372004403E1E2F3E0FA93EA930895FA93EA93DD
:10138200E0913D03F0913E0360913F037091400371
:101392000E94380D84E00E94DF0528969FCFA1E2CB
:1013A200B3E00C946A01FA93EA93E0914103F0915D
:1013B200420360914303709144030E94380D84E01C
:1013C2000E94DF0528968FCF0E943D0D0E94290DB5
:1013D20008950E944A0D0E94920B08950E943D0DAD
:1013E2000E942E0D0895ED91FD913196FE93EE939C
:1013F2000895BA93AA932497E0E0E883E9830895D5
:10140200AC81BD818E819F81E0E0F0E060E271E419
:101412000E94E90BEC83FD836E837F830895EC8148
:10142200FD816E817F81AC85BD858E859F850E9401
:101432007C0C0895AC85BD858E859F850895EDEC65
:10144200FCEC6CEC7DE30E94E90BEC87FD876E8778
:101452007F873F5F0895E0E0F0E060E271E40E9480
:10146200E90B0895EC87FD876E877F870895A0E0DA
:10147200B0E080E09FE30E94990B0895EDECFCEC54
:101482006CEC7DE30E94E90B0895A885B98511965D
:10149200A887B98711970895E02FE05DEC93E02FBC
:1014A2000895E885F9853196E887F98708952A93A2
:1014B200AF81B885E985FA8509950895FE01E65A56
:1014C200FF4F0190F081E02D08953497DE01A65A76
:1014D200BF4FED93FC930895AF81B885E985FA85F6
:1014E20009950895DE01A65ABF4F0D90BC91A02D1B
:1014F2000895EA87FB876C877D870895DFDFE5CF54
:10150200EA85FB856C857D850895EE87FF87AE852C
:10151200BF850E9433081E2F0895E4DF14960E94AF
:101522001F0D0895E88BF98B6A8B7B8B08950B7FD7
:10153200ED89EA93DE01A95ABF4F0D90BC91A02D0F
:10154200FE01E75AFF4F0190F081E02D09955030DE
:101552000895E889F9896A897B89AA85BB858C8582
:101562009D850895DE011C960E949C0C0E941F0D11
:1015720008950E94330D08950E94290D0895EE8169
:10158200FF81FA93EA930895E987FA876B877C874C
:101592000895AE81BF811196AE83BF8311970895DE
:1015A200AA81BB818C819D810895EA83FB836C8330
:1015B2007D830895EA81FB816C817D81A985BA854D
:1015C2008B859C850895A985BA858B859C85089510
:1015D200109639F080ED97E00197F1F7A8951197F1
:1015E200C9F7089530976040704009F07058089527
:1015F200552342F4503811F4E0FF04C03196691FBC
:10160200791F6BF050E8572711F45F93CFC05F3F0B
:1016120031F0660F000C57956795752F08955F930B
:1016220000200AF0CFC0C8C050E8192E1522880F3A
:10163200991F9527550F879550E8072E0522660FAB
:10164200771F7527550F67950895689401C0E89430
:101652005F93F2DF703818F07F3F08F4A7C056E1BD
:10166200571BAAF4519558300EF4593030F0EFEF71
:10167200FFEF6FEF7FE777F91AC077275523B9F0AD
:10168200EE0FFF1F661F771F5A95D1F710C07727FD
:10169200583028F0EF2FF62F672F5850F9CF5523E7
:1016A20031F076956795F795E7955A95D1F7002031
:1016B2000AF445D15F910895689401C0E894309787
:1016C20060407040B1F0002426F0772312F40094B9
:1016D20036D1172E7EE1112032F07A95EE0FFF1FE0
:1016E200661F111CF9CFEF2FF62F612D5F938ADF52
:1016F2005F9108954F93AF01FD01DA01AB01BC0187
:10170200CA01402D012C142E4F910895EA0FFB1FA0
:10171200681F0895E095F0956095EF5FFF4F6F4F5A
:1017220008955F9381DF903871F150E8152604C067
:101732005F937ADF903839F1703821F1572F591BB6
:101742002BF112F4D7DFFACF583118F0AA27BB27B2
:101752008827583028F0AB2FB82F88275850F9CF58
:10176200552329F08695B795A7955A95D9F7502D07
:10177200512572F0CBDF38F46795F795E7957395AD
:1017820013F420C0B7DF3EDF5F910895D8F7FBCF97
:10179200EA1BFB0B680B51F010F40094BBDF6623CD
:1017A20092F3EE0FFF1F661F7A95CBF7EE27FF2706
:1017B200662777275F910895EFEFFFEF6FE77FEFDF
:1017C2005F910895EFEFFFEF6FE77FE75F91089575
:1017D2005F932ADF703851F3903841F30124089463
:1017E200791F23F41CF300203AF3ECCF0F921F93DE
:1017F2002F933F934F93112722279927689FA00188
:101802008F9F302D410D591F6B9F300D411D591F68
:101812008E9F27D0BF9F25D06A9F23D0BE9F1DD009
:10182200AF9F1BD0AE9F110D291F391F491F591F92
:10183200E32FF42F652F522F4F913F912F911F913C
:101842000F9066232AF0550FEE1FFF1F661F02C07E
:1018520073954BF2CDDE5F910895100D211D391F56
:1018620002C0200D311D491F591F08955F93DCDE10
:10187200703821F411200AF49FCFA4CF903809F4D4
:1018820095CF01240894970B1BF4D4F30020F3CFD7
:10189200792F1F932F933F934F93112411272227C0
:1018A20033274427552790E2AE17BF078607410723
:1018B20030F0AE1BBF0B860B410B089401C088941D
:1018C200551F221F331F111CAA1FBB1F881F441F35
:1018D2009A9551F7F901612D4F913F912F911F91E7
:1018E200662332F0550FEE1FFF1F661F7A9543F2F3
:1018F2007FDE5F91089599239AF0772342F097173C
:1019020048F029F4AE17BF07860720F031F098940B
:101912008894089598940894089518948894089542
:101922007723C2F7971798F3A9F7EA17FB07680717
:1019320088F399F3ECCF0024AF0DB01D0895F09514
:1019420060957095E195FF4F6F4F7F4F0895FE2F81
:10195200FF0FFF0B6F2F7F2F08956F2F660F660B00
:10196200762F0895EA17E1E009F0EE2708950024A2
:1019720098E0AA0F001C0E1A10F40E0E01C0A1600E
:101982009A95B9F7EA2FA02D08954CD0F0DF0EF406
:10199200E19508950024112490E1AA0FBB1F001CB9
:1019A200111C0E1A1F0A18F40E0E1F1E01C0A16090
:1019B2009A9599F7FD01D00108953F934F935F9354
:1019C200002411244427552730E2AA0FBB1F881F89
:1019D200991F001C111C441F551F0E1A1F0A460B8B
:1019E200570B28F40E0E1F1E461F571F01C0A16081
:1019F2003A9559F7FD01BC01D001CA015F914F919F
:101A02003F910895E894A7FF02C0A1956894E7FD6D
:101A1200E195ADDFEA2F0EF4E1950895CEDFFD01E9
:101A2200BC010895E894E7FF02C0E1956894A7FF1E
:101A320004C0A19500F8039400FA0895ED91FC9179
:101A420011970895ED91FD916D917C9113970895F1
:101A5200E881F9816A817B810895A881B9818A81AF
:101A62009B810895E883F9836A837B8308957A933F
:101A72006A93FA93EA9308959A938A93BA93AA93EC
:101A82000895BB27EA0FFB1F02900A921197E1F714
:101A92000895182E862F612D192E972F712D1B2E2A
:101AA200BF2FF12D1A2EAE2FE12D089530976040F1
:101AB200704008955A934A933A932A931A930A9339
:101AC20008955D814C813B812A81198108810895A5
:00000001FF
