:0E0000000C94B4000C94AE010C94B7010C9457
:10000E0000000C9400000C9400000C9400000C9462
:10001E0000000C9400000C9400000C9400000C9452
:10002E0000000C9400000C9400000C9400000C9442
:10003E0000000C9400000C9400000C9400000C9432
:10004E0000000C9400000C9400000C9400000C9422
:10005E0000000C94AF070C9400004E6F6D6164614C
:10006E00730020202020456C656374726F6E696387
:10007E006F730049656E743A25362E31665B6D419D
:10008E005D202020200056656E743A2025352E32D4
:10009E00665B565D20202020004973616C3A253640
:1000AE002E31665B6D415D20202020005673616C01
:1000BE003A2025352E32665B565D202020200050DA
:1000CE00656E743A25362E31665B575D20202020F2
:1000DE00005073616C3A25362E31665B575D2020D9
:1000EE002020004566663A2025362E31665B252592
:1000FE005D2020202000566261743A2025352E3274
:10010E00665B565D2020202000253034642025308B
:10011E0034642025303464200025303464202530AA
:10012E003464202020202020202020002D4E414EFF
:10013E000000070001002D4E414E00494E460000C2
:10014E0008000003680011000803700001001B0383
:10015E0040010100750342010000F894EE27EFBB49
:10016E00F1E0F5BFE5BF8DE0A2E0BB27ED938A95E8
:10017E00E9F780E098E0A0E0B1E0ED930197E9F7B0
:10018E00EEE4F1E085919591009761F0A591B5911E
:10019E0005901590BF01F00105900D920197E1F7C2
:1001AE00FB01F0CFE0E0EEBBEFEFEDBFE8E0EEBF1E
:1001BE00C0E0D3E00C94E9010E943A0AEF70E29598
:1001CE00E07F03C00E943A0AE07F1E2BE12F1881C8
:1001DE0026960895AA93E881E03021F0A4E6B0E0D7
:1001EE000E941807A0E078D00E944A0A4FD0E8C0BB
:1001FE00E1E0E0931F03E0911F03EE0FEE0FEE0F11
:10020E00AE2F6AD008950E944E0AE1E00E94540A71
:10021E0080E89CE00197F1F708950E944E0AE2E013
:10022E004E2AE42DE46006C00E944E0AE4E03E2A07
:10023E00E32DE860EA93A0E00E94580A0895AA937D
:10024E001A930E944E0AA981A03011F4E0E001C079
:10025E00E0E41E2FEA811E0FE12FE0680E94540A8F
:10026E0083E68A95F1F7188123960895AA93E1E023
:10027E00E0931C03E0E0E0931D03E8810E94540A22
:10028E008DE68A95F1F7E1E0F0E09AC00E944E0A01
:10029E00E0E3EA93A1E031D080ED90E20197F1F72F
:1002AE00E0E3EA93A1E029D08CE291E00197F1F727
:1002BE00E0E3EA93A1E00E94580AE0E2EA93A1E0AB
:1002CE000E94580AE8E20E94540A83E68A95F1F7E2
:1002DE00ABDF99DFA2DF0895AA93E7E2EA93FE016E
:1002EE003196FA93EA93E1E0EA93E0E0F0E0FA93D4
:1002FE00EA93A0E00E94460763C0AA93E981E093C7
:10030E0020030E945E0A5EDF0E94670A5BDFAE2F4B
:10031E00E3DFE881E03059F483E68A95F1F70E9435
:10032E005E0A4ADF0E94670A47DFAE2FD5DF0DC097
:10033E00BA93AA93A881B981EC91E03031F0ED9196
:10034E00A883B983AE2F92DFF5CF229608950E942F
:10035E00760A4A9BFECF0E944A0AE1E06E2E08C042
:10036E000E94760A4B9BFECF0E944A0AE1E05E2E67
:10037E00E991EFBFF991E991B991A991999189917B
:10038E0079916991F990199009901895AA93E8813D
:10039E00E064E0937C008BE18A95F1F7E0917A00BE
:1003AE00E064E0937A00E0917A00E071E1F3E0918D
:1003BE007A00E061E0937A00E0917800F0917900A4
:1003CE0021960895E0E8E0936100E0E0E09361009B
:1003DE00E4B7E0FD04C0E4B7E1FD01C0E4B7E0E03E
:1003EE00E4BF6DD15D9902C02E9801C02E9AA0E097
:1003FE00F1DEFEDE0E94840AA0E0B3E099DFE0E0C9
:10040E00EA93A1E01CDFA8E0B3E092DFACEDB5E02B
:10041E000E94200C2F9AA0E0B9DFA5E3B3E00E9462
:10042E00890AA1E0B3DFA9E3B3E00E94890AA2E042
:10043E00ADDFADE3B3E00E94890AA3E0A7DFA1E43C
:10044E00B3E00E94890AA6E0A1DFA5E4B3E00E9412
:10045E00890A2F980E94900A0E94990AE0934903F4
:10046E00F0934A0360934B0370934C030E94A00ACF
:10047E000E94990AE0934D03F0934E0360934F034D
:10048E00709350030E94A90AAAEFB8E384EE9CE38E
:10049E000E94200DE0935903F0935A0360935B037F
:1004AE0070935C030E94B20A0E94BB0AE093510350
:1004BE00F093520360935303709354030E94C20A45
:1004CE000E94BB0AE0935503F093560360935703C3
:1004DE00709358030E94CB0A0E94D40A0E94200DEA
:1004EE00E0935D03F0935E0360935F03709360038C
:1004FE000E94DD0A0E94E60A0E94200DE09361032D
:10050E00F093620360936303709364030E94EF0A97
:10051E00A0E0B0E088EC92E40E94200DDF01CB0158
:10052E000E94F80A0E946E0DE0936503F093660335
:10053E006093670370936803E82DF0E03097A9F499
:10054E000E94010BE1E8F0E0FA93EA930E94D40ACC
:10055E000E94060B0E94130BE4E9F0E0FA93EA9373
:10056E000E94CB0A0E94180B89C0E130A0E0FA0766
:10057E00A9F40E94010BE7EAF0E0FA93EA930E94D5
:10058E00E60A0E94060B0E94130BEAEBF0E0FA93C8
:10059E00EA930E94DD0A0E94180B70C0E230A0E0C0
:1005AE00FA07B9F40E94010BEDECF0E0FA93EA932E
:1005BE000E94F80A0E94180B0E94840A0E94130BD4
:1005CE00EFEDF0E0FA93EA930E94EF0A0E94180B07
:1005DE0055C0E330A0E0FA0719F50E94010BE1EFD8
:1005EE00F0E0FA93EA93E0916503F091660360916F
:1005FE006703709168030E94180B0E94840A0E9480
:10060E00130BE4E0F1E0FA93EA93E0915103F091D9
:10061E00520360915303709154030E94180B2EC025
:10062E00E430A0E0FA0789F50E94010BE7E1F1E062
:10063E00FA93EA930E94900A0E941F0B0E94A00A4E
:10064E000E941F0B0E94B20A0E941F0B8CE00E9498
:10065E00E40660960E94840A0E94130BE7E2F1E022
:10066E00FA93EA930E94A90A0E941F0B0E94C20AE3
:10067E000E941F0B88E00E94E4062C96E0E0EA93AD
:10068E00A1E0DDDDA1E2B3E053DE662049F0839404
:10069E00A82DBB27E5E0F0E00E944A0E8E2E6624C0
:1006AE00552059F05D9B02C05D9801C05D9A5D9921
:1006BE0002C02E9801C02E9A5524ACCEFFCFE0EC8E
:1006CE00E4B9E0E0E5B9E7B9E8B9E0E2EAB9EBB9D7
:1006DE00E0E0E4BDE5BDE6BDE7BDE8BDE09380002A
:1006EE00E0938100E0938500E0938400E09387001F
:1006FE00E0938600E0938900E0938800E0938B00FE
:10070E00E0938A00E093B600E093B000E093B1006E
:10071E00E093B200E093B300E093B400E0936E0078
:10072E00E0936F00E0937000EAE0E0936900E3E08D
:10073E00EDBBECBBE0E0E0936800E093C100E0E8C5
:10074E00E0BFE0E0E0937F00EFE0E0937E00E0E4C6
:10075E00E0937C00E6E8E0937A00E0E0E0937B0033
:10076E00ECBDA4E6B0E00E94180778940895BA9301
:10077E00AA931A930A93AA81BB8112960E94680EBD
:10078E00309729F1AA81BB8114960E94680E8F01C1
:10079E00309761F00230E0E01E0780F0F8013197EB
:1007AE008F01AA81BB811496ED93FC93AA81BB8124
:1007BE0012960E94260B3197AC81A083AA81BB8131
:1007CE000E94680EFF2312F00E94260B06C0AA811B
:1007DE00BB81EFEFFFEFED93FC9319810881259616
:1007EE0008950E942C0BE0E8EA83EFE3EB830E946E
:1007FE00AB0EEE85FF85EF3FAFEFFA0749F4E885C4
:10080E00F985FA93EA93AAE3B1E00E942B09B7C0E7
:10081E00EF3FAFE7FA0749F4E885F985FA93EA93D3
:10082E00ABE3B1E00E942B09AAC0AB85A73010F054
:10083E00E6E0EB871B85E12F1150E03019F00E94A6
:10084E00330BF9CFEC85FD856E857F850E94A50E55
:10085E0021F430E00E94330B2DC03B850E94420BE9
:10086E0009F008F40BC00E94330B0E94420B28F0D3
:10087E000E944D0B0E94520BF8CF0DC00E94420BEE
:10088E0040F40E944D0B0E945E0B0E94650B31508E
:10089E00F5CF0E94330BEC85FD856E857F850E941A
:1008AE006A0B0E94650B0E94420B20F00E944D0BBA
:1008BE000E94520B10E0EB85E117A8F1AC81BD81CF
:1008CE008E819F810E94710B0E946A0BDF01CB010A
:1008DE000E948209EC83FD836E837F830E944D0B01
:1008EE000E946E0D0E945D0C0E2F0E94780B0E94CE
:1008FE007F0BFF27662777270E94960CAC81BD8160
:10090E008E819F810E94200D0E944D0B0E94840BB0
:10091E000E94650BE12F1F5FE03069F60E94780B95
:10092E00EEE2EC93C8CF0E94890B3197AA85A08383
:10093E0030302CF43195A885B985EDE203C0A88539
:10094E00B985EBE2EC930E94890B0E94890B3197DB
:10095E00BF01A32FEAE00E94010EE05DDB01EC93E4
:10096E000E94890B3197BF01A32FEAE00E943E0E31
:10097E00E05DDB01EC93A885B985E0E0EC930E9485
:10098E00B20E60960895BA93AA93EF9761970E945C
:10099E00A90E10E0FE01E85AFF4F0190F081E02D04
:1009AE00E887F987FE01EA5AFF4F0190F081E02DAA
:1009BE00EE83FF83AE81BF81E0E0F0E0ED93FC9328
:1009CE00DE01A45ABF4F0E94260B3197E4912E2FC1
:1009DE00E03009F4E9C1E12FE03039F4253211F4A9
:1009EE0011E002C00E948F0BDEC1E130C1F425324E
:1009FE0019F40E948F0BD6C112E0E0E0ED8B00E0FF
:100A0E002D3211F401E0CFC12B3219F4EBE2ED8B54
:100A1E00CAC1203219F4E0E2ED8BC5C102C0E2304A
:100A2E0039F450E013E0203311F40068BCC102C069
:100A3E00E33091F4203310F02A3308F007C0AAE017
:100A4E005A9F502DE22FE0535E0FADC140E02E3283
:100A5E0011F414E0A8C10FC0E43099F4203310F063
:100A6E002A3308F008C00062AAE04A9F402DE22F08
:100A7E00E0534E0F98C12C3619F4026015E093C165
:100A8E0003C0E53009F08FC1E22FE33659F40E941E
:100A9E00960B0E949D0B0E94960BA481AA930E9416
:100AAE00A40B80C1E53411F0E53609F403C0E63637
:100ABE0009F048C0FE017696EE87FF870E94AA0BCA
:100ACE000E946C0E0E94B10B0E94B60BAD85AA233C
:100ADE0032F0AD89AB3259F0A03281F017C00E94CE
:100AEE00B80B0E942A0C0E94B10BEDE2ED8B07FFB2
:100AFE0005C0ED89EA930E94A40B08C0EE85FF8520
:100B0E003196EE87FF873197AD89A08305FF46E0CA
:100B1E00263651F40E94B80B0E94860E4A93AB897A
:100B2E00BC890E94990909C00E94B80B0E94860ECA
:100B3E004A932A93AC89BD8954DEFE0176960E94B3
:100B4E00BD0B1EC0E33739F40E94B60B0E94C50BD5
:100B5E000E94BD0B0EC0E037C1F40E94B60B0E947E
:100B6E00C50BEE87FF87AE85BF850E9444091E2FF9
:100B7E0008600F77403011F0411708F001C0142FB4
:100B8E0040E0E0E0EC8B30E06DC0E43611F0E93689
:100B9E0011F4046002C0E537A1F4EAE0EC8B01FF2A
:100BAE0008C0E0E0FAEC6AE97BE30E94CA0B1AE0A7
:100BBE0022C0E0E1F7E260E070E00E94CA0B15E0AF
:100BCE001AC0E83511F4086003C0E83709F0EAC02E
:100BDE00E0E1EC8B01FF08C0E0E0F0E060E070E1E6
:100BEE000E94CA0B18E007C0E0E0F0E160E070E0A0
:100BFE000E94CA0B14E0403011F00F7701C041E0A3
:100C0E0001FF08C00E94B60B0E94AA0B14960E9408
:100C1E006C0E0FC002FF07C00E94B60B0E94C50BE0
:100C2E000E94E90D06C00E94B60B0E94C50B6627F6
:100C3E007727EA87FB876C877D8702FF12C0AD8519
:100C4E00AA2342F40E94B80B0E94DB0D0E94B10B46
:100C5E00EDE2ED8BED89E03019F01F5F4F5F01C0C3
:100C6E000B7F342F00FD14C0151710F4351708F044
:100C7E000FC007FF08C002FF04C00B7F2D89115063
:100C8E0001C020E301C020E20E948F0B5150ECCF37
:100C9E00141790F4006102FF06C00E94CF0B09F0FA
:100CAE00515011504150E0E3EA930E94A40B503092
:100CBE0009F051504150ECCF312FEC89E030B9F4AE
:100CCE003030A1F003FF06C0EE85FF852591EE873B
:100CDE00FF8705C0AE85BF852D91AE87BF870E9469
:100CEE008F0B503009F051503150EACF51C00E9455
:100CFE00E10B0E94190E2E2F2A3030F003FF02C096
:100D0E00295C01C0295A01C0205D04FD21C0213398
:100D1E0060F4A889B9898A899B89A130E0E0BE0771
:100D2E00E0E08E07E0E09E0709F40BC0431740F4A5
:100D3E00531710F000FF01C010C020E207FF08C0DB
:100D4E0020E3006102FF04C00E94CF0B09F0515056
:100D5E000E948F0B503009F0515031500E94E10B20
:100D6E000E94580E0E94B10BEC89A889B9898A8914
:100D7E009B89FF27662777270E94190E0E94CA0BB0
:100D8E00E889F9896A897B890E94A50E09F0AFCF9F
:100D9E0000FF08C0503031F05150E0E2EA930E945B
:100DAE00A40BF8CF10E00CCEAE81BF810E94680E6E
:100DBE000E94B00EEF966F960895FF92F82E26972A
:100DCE000E94AB0E0E94EA0B309719F4EFEFFFEF83
:100DDE0023C0DE0116960E94D30D8D010E94EA0BF0
:100DEE00EE83FF83E0E0E887E987DE011A960E9432
:100DFE00D30D0E94680EFA93EA931A930A93EEEBC0
:100E0E00F3E0FA93EA93DE011A96BDDD9F01AE81FF
:100E1E00BF81E0E0EC93F9010E94B20E2A96FF909A
:100E2E000895BA93AA931A93F19AE7E0E0931B03FD
:100E3E00E0E0E0937103E0937203E0937303E093B9
:100E4E007403449A459AE093BC00E091B900EC7F9C
:100E5E00E093B900E981FA81A0EABFE00E94060E94
:100E6E001E2F183008F018501093B800E091BC00F7
:100E7E00E078E564E093BC00188123960895AA9368
:100E8E002497F19B62C0EA85EE0FE0936903E88533
:100E9E00F985E0936A03F0936B03E0E0E0931903A6
:100EAE00EF81E0936C03ED81FE81E0936D03F0938F
:100EBE006E03E0E0E0931A03EC81E0936F03E6E04B
:100ECE00E0931B037894EF81E03079F0E885F985A3
:100EDE003097D9F1EC81E03021F0AD81BE811097D1
:100EEE0009F001C032C0F09A0DC0EC81E03039F14A
:100EFE00ED81FE81309749F1E0916903E160E09365
:100F0E006903F098F198E091BC00EF70E06AE0930D
:100F1E00BC00E0E2F1EA67E070E00E94F10BF199AB
:100F2E000EC00E94F40B3197604070400E94F10B8E
:100F3E0029F4E5E0E0931B03F19A07C0F0CFA091EE
:100F4E001B03E0E00E94EE0D01C0E0E02B96089539
:100F5E000A921A92FA926A937A938A939A93AA931E
:100F6E00BA93EA93FA93EFB7EA930E94A90E1091FF
:100F7E001A030091190330916C0320911B03E12F8A
:100F8E00A0916D03B0916E03F0E0EA0FFB1FAF016D
:100F9E00E091B900E87FE83011F420E002C0E031C2
:100FAE0019F4E091690310C0E83111F0E83241F50F
:100FBE00031798F4E02F0F5FA0916A03B0916B03B3
:100FCE00F0E0AE0FBF1FEC91E093BB00E091BC00D0
:100FDE00EF70E068E093BC0012C0E0916F031E1743
:100FEE0068F4E0916903E160E0936903F098E091A1
:100FFE00BC00EF70E06AE093BC000DC138C00BC1BD
:10100E00E03531F4E091BB00DA01EC931F5F02C0D2
:10101E00E03489F4E0916F03E1501E1728F0E0915F
:10102E00BC00EF70E06804C0E091BC00EF70E06CB3
:10103E00E093BC00F0C0E83531F4E091BB00DA017A
:10104E00EC931F5F02C0E03209F402C0E03309F4F2
:10105E0002C0E83469F4203051F4F09B03C003174A
:10106E0028F005C0E0916F031E1708F424E0CCC0F1
:10107E00E83331F422E0E091BC00EF70E068C8C0C4
:10108E00E83611F0E83711F422E005C0E03611F031
:10109E00E037A1F420E010E0F098E0917003E0302A
:1010AE0031F421E0E091BC00EF70E06804C0E09103
:1010BE00BC00EF70E06CE093BC00ADC0E03811F006
:1010CE00E03939F5F09B02C021E09EC0E091BB00F3
:1010DE00DA01EC931F5FE09170031E17C0F4E091EC
:1010EE007103F0917203309711F426E08DC0A0E0E9
:1010FE00E0917103F09172030995E03039F0E091BF
:10110E00BC00EF70E06CE093BC0085C001C0F09AAB
:10111E0002C0E83809F402C0E83939F4E091BC00A5
:10112E00EF70E068E093BC0076C0E03AB1F4E09175
:10113E00BC00EF70E06CE093BC00F19AE09171039B
:10114E00F0917203309739F0A1E0E0917103F091C4
:10115E007203099501C026E05EC0E03B11F422E067
:10116E0002C0E83AB1F4E0917303F0917403309742
:10117E0059F0A0E0E0917303F091740309953E2FAE
:10118E00E03011F020E002C026E03EC000E0F09812
:10119E0002C0E83BF9F4F09B02C021E035C0E02F1D
:1011AE000F5FA0916A03B0916B03F0E0AE0FBF1F0B
:1011BE00EC91E093BB00031728F4E091BC00EF70B4
:1011CE00E06C05C0F09AE091BC00EF70E068E0932F
:1011DE00BC0021C0E03C11F0E83C99F4E091BC0069
:1011EE00EF70E06CE093BC00E0917303F091740338
:1011FE00309731F0A1E0E0917303F09174030995FB
:10120E0009C0E03041F423E0E091BC00EF70E06DE6
:10121E00E093BC00F19A10931A03009319032093E4
:10122E001B0330936C030E94B00E2696E991EFBF1C
:10123E00F991E991B991A9919991899179916991D0
:10124E00F990199009901895BA93AA93E991F9918A
:10125E00A991B991CD0105900D920020E1F7FC0105
:10126E000895BA93AA93A991B991EE27FF276D918C
:10127E00662311F03196FBCF0895BA93AA93AA274D
:10128E00BB27E991F9910590002011F01196FBCF43
:10129E00FD0108950E948B0E7B816A81F981E881A0
:1012AE0077FB770F67FD7160972F9E5781F078F06F
:1012BE00983190F4AA27BB27882708948795B7956D
:1012CE00A7959A95D1F7EA23FB23682305C0E894E6
:1012DE007727EE27FF2766276F77769508F46068E5
:1012EE0077F9A991B99189919991EA17FB07680746
:1012FE00790797FB08950E948B0E0E947C0E0E9428
:10130E0051090E94F10B19F40E94F40B09C0E6F783
:10131E000E94F40BA0E0B0E080E89FE30E94C90CAD
:10132E002496089592D1E0E0EA83EFE3EB831A93DB
:10133E000A93EB85FC85EF3FAFEFFA0731F450D2FD
:10134E00A4E4B1E00E942B098AC0EF3FAFE7FA0791
:10135E0031F446D2A5E4B1E00E942B0980C0AC85E1
:10136E00AA2352F4E985FA856B857C850E942A0CA6
:10137E003CD240D2EDE2EC93A885A73010F0E6E027
:10138E00E8871885E12F1150E03021F03AD2A2D132
:10139E003DD2F8CF40D20E94D00C27D210E0E0E030
:1013AE00F0E060E87FE332D236D20E94B30D68F0EF
:1013BE0028D27DD12BD21F5F173230F011D2A9E483
:1013CE00B1E00E942B094BC0EFCF103021F412D2A6
:1013DE00E0E3EC9320C0E12F1150E030E1F011D2A8
:1013EE0079D171D1DF01CB010E9482090FD213D2C4
:1013FE000E946E0D0E945D0C0E2FFCD179D1F0E093
:10140E0000D20E94E90D0E94960C0E94200D0CD273
:10141E0074D1EBD1E0CFE885E030E9F0EBD1EEE22C
:10142E00EC93E885E150E887EF5FA9F0FDD13FD15D
:10143E00DCD1E985FA856B857C850E945D0C0E2FCB
:10144E00D9D156D1F0E0F0D10E94E90D0E94960C50
:10145E0054D1CBD1E6CFAE81BF81E0E0EC931981C0
:10146E0008812D9608951A931981EA81EE0F1E2B8D
:10147E00EB81EE0FEE0F1E2BEC81EE0FEE0FEE0F4B
:10148E001E2BED810895A2E3B0E00C94200CE0E059
:10149E00E0931C03E0931D030895EA93A0E00C94DF
:1014AE0084010E94840183E68A95F1F70895E1E0B4
:1014BE00E0931E03ECE1F3E0A5E00E94900E089588
:1014CE00AE2F0E94730183E08A95F1F7E0E0E0937E
:1014DE001E03ECE1F3E0A5E00E94900E08950A923F
:1014EE001A92FA926A937A938A939A93AA93BA93D8
:1014FE00EA93FA93EFB7EA93C6CFE0E0EA93A0E05F
:10150E000C942601662777270E94960C0E94720E75
:10151E000895E0913503F091360360913703709191
:10152E0038030895AAE0B8E280EA9BE30E94200DFA
:10153E000895E0913903F0913A0360913B03709165
:10154E003C030895E0914503F091460360914703F3
:10155E00709148030895E0913D03F0913E03609130
:10156E003F03709140030895AEE3BCE380E79CE334
:10157E000E94200D0895E0914103F0914203609185
:10158E004303709144030895E0915903F0915A0377
:10159E0060915B0370915C030895A0914903B09133
:1015AE004A0380914B0390914C030895E0915503AB
:1015BE00F091560360915703709158030895A091CE
:1015CE004D03B0914E0380914F03909150030895B7
:1015DE00E0916103F0916203609163037091640383
:1015EE000895E0915D03F0915E0360915F03709149
:1015FE0060030895E1E2F3E0FA93EA930895E0E0E0
:10160E00F0E06AE774E40E94200D0E94860E84E0EA
:10161E000E94E406289671CFA1E2B3E00E949F01DA
:10162E00E9CF0E94860E84E00E94E4062896089573
:10163E000E945F0C0E94E90D0E94860E0895ED91A6
:10164E00FD913196FE93EE930895BA93AA93249743
:10165E00E0E0E883E9830895AC81BD818E819F81AE
:10166E00E0E0F0E060E271E40E94200DEC83FD8387
:10167E006E837F830895EC81FD816E817F81AC85C1
:10168E00BD858E859F850E94B30D0895AC85BD8561
:10169E008E859F850895EDECFCEC6CEC7DE30E944D
:1016AE00200DEC87FD876E877F873F5F0895E0E012
:1016BE00F0E060E271E40E94200D0895EC87FD8752
:1016CE006E877F870895A0E0B0E080E09FE30E94E0
:1016DE00D00C0895EDECFCEC6CEC7DE30E94200D3B
:1016EE000895A885B9851196A887B9871197089589
:1016FE00E02FE05DEC93E02F08950E94980E0E947B
:10170E00C90C0895E885F9853196E887F98708951B
:10171E002A93AF81B885E985FA8509950895FE016A
:10172E00E65AFF4F0190F081E02D08953497DE01C7
:10173E00A65ABF4FED93FC930895AF81B885E98506
:10174E00FA8509950895DE01A65ABF4F0D90BC91FA
:10175E00A02D0895EA87FB876C877D870895DFDFCC
:10176E00E5CFEA85FB856C857D850895EE87FF873D
:10177E00AE85BF850E9438091E2F0895E4DF1496AA
:10178E000E94680E0895E88BF98B6A8B7B8B089507
:10179E000B7FED89EA93DE01A95ABF4F0D90BC91E4
:1017AE00A02DFE01E75AFF4F0190F081E02D099523
:1017BE0050300895E889F9896A897B89AA85BB85A5
:1017CE008C859D850895DE011C960E94D30D0E9486
:1017DE00680E08950E94810E08950E94770E089556
:1017EE00EE81FF81FA93EA930895E987FA876B8772
:1017FE007C870895AE81BF811196AE83BF8311970A
:10180E000895AA81BB818C819D810895EA83FB8313
:10181E006C837D830895EA81FB816C817D81A9852E
:10182E00BA858B859C850895A985BA858B859C85FF
:10183E000895109639F080ED97E00197F1F7A8958D
:10184E001197C9F7089530976040704009F07058AD
:10185E000895552342F4503811F4E0FF04C0319638
:10186E00691F791F6BF050E8572711F45F93CFC0B3
:10187E005F3F31F0660F000C57956795752F0895F1
:10188E005F9300200AF0CFC0C8C050E8192E152271
:10189E00880F991F9527550F879550E8072E05221B
:1018AE00660F771F7527550F67950895689401C0C9
:1018BE00E8945F93F2DF703818F07F3F08F4A7C00A
:1018CE0056E1571BAAF4519558300EF4593030F0AA
:1018DE00EFEFFFEF6FEF7FE777F91AC0772755230A
:1018EE00B9F0EE0FFF1F661F771F5A95D1F710C084
:1018FE007727583028F0EF2FF62F672F5850F9CF53
:10190E00552331F076956795F795E7955A95D1F76A
:10191E0000200AF449D15F910895689401C0E894BB
:10192E00309760407040B1F0002426F0772312F417
:10193E0000943AD1172E7EE1112032F07A95EE0FF7
:10194E00FF1F661F111CF9CFEF2FF62F612D5F932E
:10195E008ADF5F9108954F93AF01FD01DA01AB016C
:10196E00BC01CA01402D012C142E4F910895EA0F8F
:10197E00FB1F681F0895E095F0956095EF5FFF4F90
:10198E006F4F08955F9381DF903871F150E81526FF
:10199E0004C05F937ADF903839F1703821F1572FF8
:1019AE00591B2BF112F4D7DFFACF583118F0AA27B2
:1019BE00BB278827583028F0AB2FB82F88275850D0
:1019CE00F9CF552329F08695B795A7955A95D9F74E
:1019DE00502D512572F0CBDF38F46795F795E795CA
:1019EE00739513F420C0B7DF3EDF5F910895D8F7EB
:1019FE00FBCFEA1BFB0B680B51F010F40094BBDF1E
:101A0E00662392F3EE0FFF1F661F7A95CBF7EE2734
:101A1E00FF27662777275F910895EFEFFFEF6FE7B8
:101A2E007FEF5F910895EFEFFFEF6FE77FE75F9135
:101A3E0008955F932ADF703851F3903841F30124F3
:101A4E000894791F23F41CF300203AF3ECCF0F9285
:101A5E001F932F933F934F93112722279927689F08
:101A6E00A0018F9F302D410D591F6B9F300D411DD1
:101A7E00591F8E9F27D0BF9F25D06A9F23D0BE9F10
:101A8E001DD0AF9F1BD0AE9F110D291F391F491FAF
:101A9E00591FE32FF42F652F522F4F913F912F9106
:101AAE001F910F9066232AF0550FEE1FFF1F661F22
:101ABE0002C073954BF2CDDE5F910895100D211D7E
:101ACE00391F02C0200D311D491F591F08955F9304
:101ADE00DCDE703821F411200AF49FCFA4CF9038A9
:101AEE0009F495CF01240894970B1BF4D4F300202E
:101AFE00F3CF792F1F932F933F934F9311241127D9
:101B0E00222733274427552790E2AE17BF078607B3
:101B1E00410730F0AE1BBF0B860B410B089401C082
:101B2E008894551F221F331F111CAA1FBB1F881F0D
:101B3E00441F9A9551F7F901612D4F913F912F91C5
:101B4E001F91662332F0550FEE1FFF1F661F7A9509
:101B5E0043F27FDE5F91089599239AF0772342F046
:101B6E00971748F029F4AE17BF07860720F031F01B
:101B7E009894889408959894089408951894889445
:101B8E0008957723C2F7971798F3A9F7EA17FB077B
:101B9E00680788F399F3ECCF0024AF0DB01D0895BC
:101BAE00F195E195F0400895F09560957095E19569
:101BBE00FF4F6F4F7F4F0895FE2FFF0FFF0B6F2FBD
:101BCE007F2F08956F2F660F660B762F0895EA17F5
:101BDE00E1E009F0EE270895002498E0AA0F001C1A
:101BEE000E1A10F40E0E01C0A1609A95B9F7EA2FE5
:101BFE00A02D08955AD0F0DF0EF4E195089500243B
:101C0E00112490E1AA0FBB1F001C111C0E1A1F0AF3
:101C1E0018F40E0E1F1E01C0A1609A9599F7FD01D2
:101C2E00D00108953F934F935F93002411244427CE
:101C3E00552730E2AA0FBB1F881F991F001C111CCD
:101C4E00441F551F0E1A1F0A460B570B28F40E0E73
:101C5E001F1E461F571F01C0A1603A9559F7FD017F
:101C6E00BC01D001CA015F914F913F910895E89454
:101C7E00A7FF02C0A1956894E7FDE195ADDFEA2FBD
:101C8E000EF4E1950895E894B7FF04C0A095B095C1
:101C9E0011966894F7FD84DFB2DFFD010EF480DF4C
:101CAE000895C0DFFD01BC010895E894E7FF02C06E
:101CBE00E1956894A7FF04C0A19500F8039400FA7B
:101CCE000895ED91FC9111970895ED91FD916D910F
:101CDE007C9113970895ED93FD936D937C930895E6
:101CEE00E881F9816A817B810895A881B9818A8111
:101CFE009B810895E883F9836A837B8308957A93A1
:101D0E006A93FA93EA9308959A938A93BA93AA934D
:101D1E000895BB27EA0FFB1F02900A921197E1F775
:101D2E000895182E862F612D192E972F712D1B2E8B
:101D3E00BF2FF12D1A2EAE2FE12D08953097604052
:101D4E00704008955A934A933A932A931A930A939A
:101D5E0008955D814C813B812A8119810881089506
:00000001FF
