:100000000C94B4000C94B0010C94E1010C94000029
:100010000C9400000C9400000C9400000C94000060
:100020000C9400000C9400000C9400000C94000050
:100030000C9400000C9400000C9400000C94000040
:100040000C9400000C9400000C9400000C94000030
:100050000C9400000C9400000C9400000C94000020
:100060000C94F9070C9400004E6F6D61646173008D
:1000700020202020456C656374726F6E69636F7316
:100080000049656E743A25362E31665B6D415D2000
:100090002020200056656E743A2025352E32665B8E
:1000A000565D20202020004973616C3A25362E31A0
:1000B000665B6D415D20202020005673616C3A2004
:1000C00025352E32665B565D202020200050656E5F
:1000D000743A25362E31665B575D20202020005073
:1000E00073616C3A25362E31665B575D20202020E7
:1000F000004566663A2025362E31665B25255D2053
:1001000020202000566261743A2025352E32665B2D
:10011000565D2020202000253034642025303464B2
:1001200020253034642020002530346420253034EC
:10013000642020202020202020002D4E414E000051
:10014000070001002D4E414E00494E4600000800B8
:100150000003680011000803700001001B03400148
:100160000100750342010000F894EE27EFBBF1E0B7
:10017000F5BFE5BF8DE0A2E0BB27ED938A95E9F7D7
:1001800080E098E0A0E0B1E0ED930197E9F7EEE4BC
:10019000F1E085919591009761F0A591B591059059
:1001A0001590BF01F00105900D920197E1F7FB0159
:1001B000F0CFE0E0EEBBEFEFEDBFE8E0EEBFC0E078
:1001C000D3E00C9415020E94860AEF70E295E07F5E
:1001D00003C00E94860AE07F1E2BE12F188126961D
:1001E0000895AA93E881E03021F0A4E6B0E00E94EF
:1001F0006207A0E07AD00E94960A51D014C1E1E0D3
:1002000001C0E0E0E0931F03E0911F03EE0FEE0F4B
:10021000EE0FAE2F6AD008950E949A0AE1E00E9484
:10022000A00A80E89CE00197F1F708950E949A0ADD
:10023000E2E04E2AE42DE46006C00E949A0AE4E05F
:100240003E2AE32DE860EA93A0E00E94A40A089504
:10025000AA931A930E949A0AA981A03011F4E0E0AF
:1002600001C0E0E41E2FEA811E0FE12FE0680E942A
:10027000A00A83E68A95F1F7188123960895AA9338
:10028000E1E0E0931C03E0E0E0931D03E8810E94BD
:10029000A00A8DE68A95F1F7E1E0F0E0C4C00E9483
:1002A0009A0AE0E3EA93A1E031D080ED90E2019771
:1002B000F1F7E0E3EA93A1E029D08CE291E0019725
:1002C000F1F7E0E3EA93A1E00E94A40AE0E2EA93F6
:1002D000A1E00E94A40AE8E20E94A00A83E68A95AF
:1002E000F1F7ABDF99DFA2DF0895AA93E7E2EA9383
:1002F000FE013196FA93EA93E1E0EA93E0E0F0E060
:10030000FA93EA93A0E00E9490078DC0AA93E98136
:10031000E09320030E94AA0A5CDF0E94B30A59DF1F
:10032000AE2FE3DFE881E03059F483E68A95F1F7F8
:100330000E94AA0A48DF0E94B30A45DFAE2FD5DF2C
:100340000DC0BA93AA93A881B981EC91E03031F045
:10035000ED91A883B983AE2F92DFF5CF2296089551
:100360000E94C20A0E94D00AE0E0EA83EB830E9466
:10037000960A4A9920C0AAE0B0E00E94870C0E9429
:10038000D50AE65FFF4F6F4F7F4F0E94D80A0E9449
:10039000E80EA03DE7E0BE07E0E08E07E0E09E0744
:1003A00048F00E94DB0A0E945A0EA1E0B0E00E94D1
:1003B0001D0F01C0DECF0E94960AE1E06E2E24964A
:1003C0000AC00E94C20A0E94960A4B9BFECF0E945E
:1003D000960AE1E05E2EE991EFBFF991E991B991BA
:1003E000A9919991899179916991F99019900990C0
:1003F0001895AA93E881E064E0937C008BE18A95EC
:10040000F1F7E0917A00E064E0937A00E0917A00FD
:10041000E071E1F3E0917A00E061E0937A00E0912D
:100420007800F091790021960895E0E8E09361006A
:10043000E0E0E0936100E4B7E0FD04C0E4B7E1FD73
:1004400001C0E4B7E0E0E4BF89D15D9902C02E9815
:1004500001C02E9AA0E0C5DE0E94DB0AE03011F058
:10046000CEDE01C0CEDE0E94E00AA0E0B3E069DF8C
:10047000E0E0EA93A1E0ECDEA8E0B3E062DFACEDFF
:10048000B5E00E94870C2F9AA0E0B3DFA5E3B3E0AC
:100490000E94E50AA1E0ADDFA9E3B3E00E94E50A0E
:1004A000A2E0A7DFADE3B3E00E94E50AA3E0A1DF8D
:1004B000A1E4B3E00E94E50AA6E09BDFA5E4B3E077
:1004C0000E94E50A2F980E94EC0A0E94F50AE09328
:1004D0004903F0934A0360934B0370934C030E94CB
:1004E000FC0A0E94F50AE0934D03F0934E036093DB
:1004F0004F03709350030E94050BAAEFB8E384EEFC
:100500009CE30E94870DE0935903F0935A03609394
:100510005B0370935C030E940E0B0E94170BE09329
:100520005103F093520360935303709354030E945A
:100530001E0B0E94170BE0935503F0935603609334
:100540005703709358030E94270B0E94300B0E94A0
:10055000870DE0935D03F0935E0360935F037093F8
:1005600060030E94390B0E94420B0E94870DE093AA
:100570006103F093620360936303709364030E94CA
:100580004B0BA0E0B0E088EC92E40E94870DDF0105
:10059000CB010E94540B0E94D50DE0936503F093AC
:1005A00066036093670370936803A0E0B0E00E9465
:1005B000110FF0E0309779F40E945D0BE1E8F0E074
:1005C000FA93EA930E94300B0E94620B0E946F0B19
:1005D0000E94740B92C0E130A0E0FA0779F40E9407
:1005E0005D0BE7EAF0E0FA93EA930E94420B0E9467
:1005F000620B0E946F0B0E94800B7FC0E230A0E074
:10060000FA0759F40E945D0B0E94740B0E94E00AE5
:100610000E946F0B0E94800B70C0E330A0E0FA07CD
:10062000B9F40E945D0BEDECF0E0FA93EA930E94BE
:10063000540B0E948C0B0E94E00A0E946F0BEFED9E
:10064000F0E0FA93EA930E944B0B0E948C0B55C08A
:10065000E430A0E0FA0719F50E945D0BE1EFF0E04D
:10066000FA93EA93E0916503F09166036091670362
:10067000709168030E948C0B0E94E00A0E946F0B2D
:10068000E4E0F1E0FA93EA93E0915103F091520330
:1006900060915303709154030E948C0B2EC0E5307F
:1006A000A0E0FA0789F50E945D0BE7E1F1E0FA931B
:1006B000EA930E94EC0A0E94930B0E94FC0A0E949B
:1006C000930B0E940E0B0E94930B8CE00E942E074E
:1006D00060960E94E00A0E946F0BE8E2F1E0FA9354
:1006E000EA930E94050B0E94930B0E941E0B0E942E
:1006F000930B88E00E942E072C96E0E0EA93A1E09D
:10070000A7DDA1E2B3E01DDE662091F0A0E0B0E03D
:100710000E94110FEF5F0E941D0FF0E0DF01E5E086
:10072000F0E00E94B60EA0E0B0E00E941D0F66242B
:10073000552059F05D9B02C05D9801C05D9A5D999E
:1007400002C02E9801C02E9A55240E94DB0AE03088
:1007500011F055DD01C055DD96CEFFCFE0ECE4B9D8
:10076000E0E0E5B9E7B9E8B9E0E2EAB9EBB9E0E021
:10077000E4BDE5BDE6BDE7BDE8BDE0938000E093E4
:100780008100E0938500E0938400E0938700E0938C
:100790008600E0938900E0938800E0938B00E0936B
:1007A0008A00E093B600E093B000E093B100E093DC
:1007B000B200E093B300E093B400E0936E00E093E6
:1007C0006F00E0937000EAE0E0936900E3E0EDBBC6
:1007D000ECBBE0E0E0936800E093C100E0E8E0BF3C
:1007E000E0E0E0937F00EFE0E0937E00E0E4E09360
:1007F0007C00E6E8E0937A00E0E0E0937B00ECBD6B
:10080000A4E6B0E00E94620778940895BA93AA9390
:100810001A930A93AA81BB8112960E94D40E309734
:1008200029F1AA81BB8114960E94D40E8F013097C2
:1008300061F00230E0E01E0780F0F80131978F018F
:10084000AA81BB811496ED93FC93AA81BB81129679
:100850000E949A0B3197AC81A083AA81BB810E9430
:10086000D40EFF2312F00E949A0B06C0AA81BB810E
:10087000EFEFFFEFED93FC93198108812596089522
:10088000BA93AA930E94D00AE0E8EA83EFE3EB83ED
:100890000E94340FEE85FF85EF3FAFEFFA0749F472
:1008A000E885F985FA93EA93AAE3B1E00E94750915
:1008B000B7C0EF3FAFE7FA0749F4E885F985FA9347
:1008C000EA93ABE3B1E00E947509AAC0AB85A730FB
:1008D00010F0E6E0EB871B85E12F1150E03019F0B6
:1008E0000E94A00BF9CFEC85FD856E857F850E9467
:1008F0002E0F21F430E00E94A00B2DC03B850E94FA
:10090000AF0B09F008F40BC00E94A00B0E94AF0BC4
:1009100028F00E94BA0B0E94BF0BF8CF0DC00E94B6
:10092000AF0B40F40E94BA0B0E94CB0B0E94D20B7B
:100930003150F5CF0E94A00BEC85FD856E857F853B
:100940000E94D70B0E94D20B0E94AF0B20F00E9496
:10095000BA0B0E94BF0B10E0EB85E117A8F1AC8148
:10096000BD818E819F810E94DE0B0E94D70BDF012B
:10097000CB010E94CC09EC83FD836E837F830E94B0
:10098000BA0B0E94D50D0E94C40C0E2F0E94E50BDD
:100990000E94EC0BFF27662777270E94FD0CAC8195
:1009A000BD818E819F810E94870D0E94BA0B0E949B
:1009B000F10B0E94D20BE12F1F5FE03069F60E941D
:1009C000E50BEEE2EC93C8CF0E94F60B3197AA85B7
:1009D000A08330302CF43195A885B985EDE203C0B1
:1009E000A885B985EBE2EC930E94F60B0E94F60B0A
:1009F0003197BF01A32FEAE00E946D0EE05DDB019D
:100A0000EC930E94F60B3197BF01A32FEAE00E94FE
:100A1000AA0EE05DDB01EC93A885B985E0E0EC93DC
:100A20000E943B0F60960895BA93AA93EF9761973F
:100A30000E94320F10E0FE01E85AFF4F0190F08152
:100A4000E02DE887F987FE01EA5AFF4F0190F08117
:100A5000E02DEE83FF83AE81BF81E0E0F0E0ED9317
:100A6000FC93DE01A45ABF4F0E949A0B3197E49188
:100A70002E2FE03009F4E9C1E12FE03039F42532BE
:100A800011F411E002C00E94FC0BDEC1E130C1F4A0
:100A9000253219F40E94FC0BD6C112E0E0E0ED8B88
:100AA00000E02D3211F401E0CFC12B3219F4EBE25A
:100AB000ED8BCAC1203219F4E0E2ED8BC5C102C052
:100AC000E23039F450E013E0203311F40068BCC187
:100AD00002C0E33091F4203310F02A3308F007C04D
:100AE000AAE05A9F502DE22FE0535E0FADC140E0C7
:100AF0002E3211F414E0A8C10FC0E43099F4203371
:100B000010F02A3308F008C00062AAE04A9F402D86
:100B1000E22FE0534E0F98C12C3619F4026015E015
:100B200093C103C0E53009F08FC1E22FE33659F4D9
:100B30000E94030C0E940A0C0E94030CA481AA9339
:100B40000E94110C80C1E53411F0E53609F403C0B0
:100B5000E63609F048C0FE017696EE87FF870E94D0
:100B6000170C0E94D80E0E941E0C0E94230CAD850B
:100B7000AA2332F0AD89AB3259F0A03281F017C010
:100B80000E94250C0E94910C0E941E0CEDE2ED8B40
:100B900007FF05C0ED89EA930E94110C08C0EE859D
:100BA000FF853196EE87FF873197AD89A08305FFDA
:100BB00046E0263651F40E94250C0E94F20E4A931C
:100BC000AB89BC890E94E30909C00E94250C0E94E0
:100BD000F20E4A932A93AC89BD8952DEFE017696C5
:100BE0000E942A0C1EC0E33739F40E94230C0E9495
:100BF000320C0E942A0C0EC0E037C1F40E94230C74
:100C00000E94320CEE87FF87AE85BF850E948E0959
:100C10001E2F08600F77403011F0411708F001C017
:100C2000142F40E0E0E0EC8B30E06DC0E43611F0D2
:100C3000E93611F4046002C0E537A1F4EAE0EC8B78
:100C400001FF08C0E0E0FAEC6AE97BE30E94370CA0
:100C50001AE022C0E0E1F7E260E070E00E94370CA9
:100C600015E01AC0E83511F4086003C0E83709F050
:100C7000EAC0E0E1EC8B01FF08C0E0E0F0E060E0FA
:100C800070E10E94370C18E007C0E0E0F0E160E09E
:100C900070E00E94370C14E0403011F00F7701C073
:100CA00041E001FF08C00E94230C0E94170C14961B
:100CB0000E94D80E0FC002FF07C00E94230C0E94A2
:100CC000320C0E94500E06C00E94230C0E94320C6F
:100CD00066277727EA87FB876C877D8702FF12C02C
:100CE000AD85AA2342F40E94250C0E94420E0E9468
:100CF0001E0CEDE2ED8BED89E03019F01F5F4F5FC8
:100D000001C00B7F342F00FD14C0151710F43517E8
:100D100008F00FC007FF08C002FF04C00B7F2D8939
:100D2000115001C020E301C020E20E94FC0B515091
:100D3000ECCF141790F4006102FF06C00E943C0C37
:100D400009F0515011504150E0E3EA930E94110C18
:100D5000503009F051504150ECCF312FEC89E03048
:100D6000B9F43030A1F003FF06C0EE85FF85259170
:100D7000EE87FF8705C0AE85BF852D91AE87BF8703
:100D80000E94FC0B503009F051503150EACF51C055
:100D90000E944E0C0E94850E2E2F2A3030F003FF49
:100DA00002C0295C01C0295A01C0205D04FD21C098
:100DB000213360F4A889B9898A899B89A130E0E050
:100DC000BE07E0E08E07E0E09E0709F40BC0431782
:100DD00040F4531710F000FF01C010C020E207FFDD
:100DE00008C020E3006102FF04C00E943C0C09F02F
:100DF00051500E94FC0B503009F0515031500E946C
:100E00004E0C0E94C40E0E941E0CEC89A889B98960
:100E10008A899B89FF27662777270E94850E0E9473
:100E2000370CE889F9896A897B890E942E0F09F0BD
:100E3000AFCF00FF08C0503031F05150E0E2EA93EC
:100E40000E94110CF8CF10E00CCEAE81BF810E9441
:100E5000D40E0E94390FEF966F960895FF92F82EE8
:100E600026970E94340F0E94570C309719F4EFEF29
:100E7000FFEF23C0DE0116960E943A0E8D010E94FC
:100E8000570CEE83FF83E0E0E887E987DE011A96DE
:100E90000E943A0E0E94D40EFA93EA931A930A9390
:100EA000E6E0F4E0FA93EA93DE011A96BDDD9F01D5
:100EB000AE81BF81E0E0EC93F9010E943B0F2A96DE
:100EC000FF900895BA93AA931A93F19AE7E0E093FA
:100ED0001B03E0E0E0937103E0937203E09373037C
:100EE000E0937403449A459AE093BC00E091B90002
:100EF000EC7FE093B900E981FA81A0EABFE00E94AB
:100F0000720E1E2F183008F018501093B800E091A0
:100F1000BC00E078E564E093BC0018812396089556
:100F2000AA932497F19B62C0EA85EE0FE0936903D0
:100F3000E885F985E0936A03F0936B03E0E0E093C2
:100F40001903EF81E0936C03ED81FE81E0936D0363
:100F5000F0936E03E0E0E0931A03EC81E0936F03FB
:100F6000E6E0E0931B037894EF81E03079F0E885C8
:100F7000F9853097D9F1EC81E03021F0AD81BE8167
:100F8000109709F001C032C0F09A0DC0EC81E0303A
:100F900039F1ED81FE81309749F1E0916903E1601B
:100FA000E0936903F098F198E091BC00EF70E06A7B
:100FB000E093BC00E0E2F1EA67E070E00E94D80A4A
:100FC000F1990EC00E94D50A3197604070400E948E
:100FD000D80A29F4E5E0E0931B03F19A07C0F0CFAB
:100FE000A0911B03E0E00E94550E01C0E0E02B96AB
:100FF00008950A921A92FA926A937A938A939A932C
:10100000AA93BA93EA93FA93EFB7EA930E94320F46
:1010100010911A030091190330916C0320911B0366
:10102000E12FA0916D03B0916E03F0E0EA0FFB1F7A
:10103000AF01E091B900E87FE83011F420E002C090
:10104000E03119F4E091690310C0E83111F0E832A1
:1010500041F5031798F4E02F0F5FA0916A03B09158
:101060006B03F0E0AE0FBF1FEC91E093BB00E0918B
:10107000BC00EF70E068E093BC0012C0E0916F0329
:101080001E1768F4E0916903E160E0936903F0984A
:10109000E091BC00EF70E06AE093BC000DC138C085
:1010A0000BC1E03531F4E091BB00DA01EC931F5F36
:1010B00002C0E03489F4E0916F03E1501E1728F07C
:1010C000E091BC00EF70E06804C0E091BC00EF70FC
:1010D000E06CE093BC00F0C0E83531F4E091BB0077
:1010E000DA01EC931F5F02C0E03209F402C0E03382
:1010F00009F402C0E83469F4203051F4F09B03C0D5
:10110000031728F005C0E0916F031E1708F424E0D0
:10111000CCC0E83331F422E0E091BC00EF70E0682D
:10112000C8C0E83611F0E83711F422E005C0E03617
:1011300011F0E037A1F420E010E0F098E0917003A6
:10114000E03031F421E0E091BC00EF70E06804C0D1
:10115000E091BC00EF70E06CE093BC00ADC0E03803
:1011600011F0E03939F5F09B02C021E09EC0E0911A
:10117000BB00DA01EC931F5FE09170031E17C0F40F
:10118000E0917103F0917203309711F426E08DC065
:10119000A0E0E0917103F09172030995E03039F01D
:1011A000E091BC00EF70E06CE093BC0085C001C032
:1011B000F09A02C0E83809F402C0E83939F4E09145
:1011C000BC00EF70E068E093BC0076C0E03AB1F498
:1011D000E091BC00EF70E06CE093BC00F19AE0910C
:1011E0007103F0917203309739F0A1E0E09171033F
:1011F000F0917203099501C026E05EC0E03B11F456
:1012000022E002C0E83AB1F4E0917303F091740374
:10121000309759F0A0E0E0917303F09174030995C1
:101220003E2FE03011F020E002C026E03EC000E09A
:10123000F09802C0E83BF9F4F09B02C021E035C011
:10124000E02F0F5FA0916A03B0916B03F0E0AE0F47
:10125000BF1FEC91E093BB00031728F4E091BC00A2
:10126000EF70E06C05C0F09AE091BC00EF70E068B0
:10127000E093BC0021C0E03C11F0E83C99F4E0911F
:10128000BC00EF70E06CE093BC00E0917303F09160
:101290007403309731F0A1E0E0917303F09174038F
:1012A000099509C0E03041F423E0E091BC00EF7003
:1012B000E06DE093BC00F19A10931A0300931903B8
:1012C00020931B0330936C030E94390F2696E991FB
:1012D000EFBFF991E991B991A9919991899179918A
:1012E0006991F990199009901895BA93AA93E99188
:1012F000F991A991B991CD0105900D920020E1F7E6
:10130000FC010895BA93AA93A991B991EE27FF27FA
:101310006D91662311F03196FBCF0895BA93AA938D
:10132000AA27BB27E991F9910590002011F01196A9
:10133000FBCFFD0108950E94F70E7B816A81F98140
:10134000E88177FB770F67FD7160972F9E5781F0DB
:1013500078F0983190F4AA27BB27882708948795BE
:10136000B795A7959A95D1F7EA23FB23682305C083
:10137000E8947727EE27FF2766276F77769508F49E
:10138000606877F9A991B99189919991EA17FB075A
:101390006807790797FB08950E94F70E0E94E80EF0
:1013A0000E949B090E94D80A19F40E94D50A09C01C
:1013B000E6F70E94D50AA0E0B0E080E89FE30E9433
:1013C000300D24960895BA93AA93EAD0E0E0EA8318
:1013D000EFE3EB831A930A93EB85FC85EF3FAFEFC6
:1013E000FA0731F46BD2A4E4B1E00E9475098AC017
:1013F000EF3FAFE7FA0731F461D2A5E4B1E00E9414
:10140000750980C0AC85AA2352F4E985FA856B85FD
:101410007C850E94910C57D25BD2EDE2EC93A885BB
:10142000A73010F0E6E0E8871885E12F1150E03092
:1014300021F055D2C3D158D2F8CF5BD20E94370DDC
:1014400042D210E0E0E0F0E060E87FE34DD251D21C
:101450000E941A0E68F043D29ED146D21F5F173207
:1014600030F02CD2A9E4B1E00E9475094BC0EFCF57
:10147000103021F42DD2E0E3EC9320C0E12F115085
:10148000E030E1F02CD29AD192D1DF01CB010E9461
:10149000CC092AD22ED20E94D50D0E94C40C0E2F48
:1014A00017D29AD1F0E01BD20E94500E0E94FD0C80
:1014B0000E94870D27D295D106D2E0CFE885E03093
:1014C000E9F006D2EEE2EC93E885E150E887EF5FC1
:1014D000A9F018D260D1F7D1E985FA856B857C85B2
:1014E0000E94C40C0E2FF4D177D1F0E00BD20E94F1
:1014F000500E0E94FD0C75D1E6D1E6CFAE81BF81C2
:10150000E0E0EC93198108812D9608951A931981D2
:10151000EA81EE0F1E2BEB81EE0FEE0F1E2BEC81FE
:10152000EE0FEE0FEE0F1E2BED810895A2E3B0E05B
:101530000C94870CE0E0E0931C03E0931D030895F6
:10154000EA93A0E00C9486010E94860183E68A95C6
:10155000F1F70895E1E0E0931E03ECE1F3E0A5E08C
:101560000E94FC0E0895AE2F0E94750183E08A95BB
:10157000F1F7E0E0E0931E03ECE1F3E0A5E00E9468
:10158000FC0E08950A921A92FA926A937A938A93B9
:101590009A93AA93BA93EA93FA93EFB7EA930895CA
:1015A0002497E0E0E883E98308950E94E30E08951C
:1015B0000E94ED0E0895A1E0B0E00E94110F089581
:1015C000E0E0EA93A0E00C942801662777270E94C8
:1015D000FD0C0E94DE0E0895E0913503F091360374
:1015E00060913703709138030895AAE0B8E280EA69
:1015F0009BE30E94870D0895E0913903F0913A032F
:1016000060913B0370913C030895E0914503F09194
:10161000460360914703709148030895E0913D03AC
:10162000F0913E0360913F03709140030895AEE353
:10163000BCE380E79CE30E94870D0895E09141039D
:10164000F091420360914303709144030895E09147
:101650005903F0915A0360915B0370915C03089504
:10166000A0914903B0914A0380914B0390914C03A0
:101670000895E0915503F0915603609157037091DE
:1016800058030895A0914D03B0914E0380914F03EC
:10169000909150030895E0916103F091620360918D
:1016A0006303709164030895E0915D03F0915E031C
:1016B00060915F03709160030895E1E2F3E0FA93B3
:1016C000EA930895E0E0F0E06AE774E40E94870D91
:1016D0000E94F20E84E00E942E07289671CFA1E2AC
:1016E000B3E00E94A101E9CFE4E9F0E0FA93EA93C4
:1016F000AEDF0E94F20E84E00E942E072896089525
:10170000EAEBF0E0FA93EA93B4DF0E94F20E84E091
:101710000E942E07289608950E94F20E84E00E94EF
:101720002E07289608950E94C60C0E94500E0E9413
:10173000F20E0895ED91FD913196FE93EE9308958A
:10174000AC81BD818E819F81E0E0F0E060E271E4D8
:101750000E94870DEC83FD836E837F830895EC8167
:10176000FD816E817F81AC85BD858E859F850E94C0
:101770001A0E0895AC85BD858E859F850895EDEC84
:10178000FCEC6CEC7DE30E94870DEC87FD876E8797
:101790007F873F5F0895E0E0F0E060E271E40E943F
:1017A000870D0895EC87FD876E877F870895A0E0F9
:1017B000B0E080E09FE30E94370D0895EDECFCEC73
:1017C0006CEC7DE30E94870D0895A885B98511967C
:1017D000A887B98711970895E02FE05DEC93E02F7B
:1017E00008950E94040F0E94300D0895E885F98540
:1017F0003196E887F98708952A93AF81B885E985FE
:10180000FA8509950895FE01E65AFF4F0190F0818F
:10181000E02D08953497DE01A65ABF4FED93FC9357
:101820000895AF81B885E985FA8509950895DE01A7
:10183000A65ABF4F0D90BC91A02D0895EA87FB8753
:101840006C877D870895DFDFE5CFEA85FB856C85B2
:101850007D850895EE87FF87AE85BF850E9482094A
:101860001E2F0895E4DF14960E94D40E0895E88B8D
:10187000F98B6A8B7B8B08950B7FED89EA93DE01F0
:10188000A95ABF4F0D90BC91A02DFE01E75AFF4F02
:101890000190F081E02D099550300895E889F9898B
:1018A0006A897B89AA85BB858C859D850895DE0123
:1018B0001C960E943A0E0E94D40E0895EE81FF817C
:1018C000FA93EA930895E987FA876B877C870895EE
:1018D000AE81BF811196AE83BF8311970895AA810F
:1018E000BB818C819D810895EA83FB836C837D831A
:1018F0000895EA81FB816C817D81A985BA858B85FC
:101900009C850895A985BA858B859C850895109638
:1019100039F080ED97E00197F1F7A8951197C9F795
:10192000089530976040704009F07058089555232D
:1019300042F4503811F4E0FF04C03196691F791F5A
:101940006BF050E8572711F45F93CFC05F3F31F041
:10195000660F000C57956795752F08955F930020CB
:101960000AF0CFC0C8C050E8192E1522880F991F61
:101970009527550F879550E8072E0522660F771F8C
:101980007527550F67950895689401C0E8945F9393
:10199000F2DF703818F07F3F08F4A7C056E1571BFC
:1019A000AAF4519558300EF4593030F0EFEFFFEFB4
:1019B0006FEF7FE777F91AC077275523B9F0EE0F5D
:1019C000FF1F661F771F5A95D1F710C07727583031
:1019D00028F0EF2FF62F672F5850F9CF552331F00D
:1019E00076956795F795E7955A95D1F700200AF413
:1019F00049D15F910895689401C0E89430976040A0
:101A00007040B1F0002426F0772312F400943AD10C
:101A1000172E7EE1112032F07A95EE0FFF1F661F20
:101A2000111CF9CFEF2FF62F612D5F938ADF5F91A5
:101A300008954F93AF01FD01DA01AB01BC01CA016A
:101A4000402D012C142E4F910895EA0FFB1F681FA3
:101A50000895E095F0956095EF5FFF4F6F4F089503
:101A60005F9381DF903871F150E8152604C05F93D1
:101A70007ADF903839F1703821F1572F591B2BF14B
:101A800012F4D7DFFACF583118F0AA27BB278827DE
:101A9000583028F0AB2FB82F88275850F9CF55234E
:101AA00029F08695B795A7955A95D9F7502D5125C8
:101AB00072F0CBDF38F46795F795E795739513F4DB
:101AC00020C0B7DF3EDF5F910895D8F7FBCFEA1B58
:101AD000FB0B680B51F010F40094BBDF662392F30C
:101AE000EE0FFF1F661F7A95CBF7EE27FF276627BD
:101AF00077275F910895EFEFFFEF6FE77FEF5F913B
:101B00000895EFEFFFEF6FE77FE75F9108955F9331
:101B10002ADF703851F3903841F301240894791F7B
:101B200023F41CF300203AF3ECCF0F921F932F9372
:101B30003F934F93112722279927689FA0018F9FDA
:101B4000302D410D591F6B9F300D411D591F8E9F28
:101B500027D0BF9F25D06A9F23D0BE9F1DD0AF9FA7
:101B60001BD0AE9F110D291F391F491F591FE32F8D
:101B7000F42F652F522F4F913F912F911F910F906E
:101B800066232AF0550FEE1FFF1F661F02C07395D4
:101B90004BF2CDDE5F910895100D211D391F02C05B
:101BA000200D311D491F591F08955F93DCDE7038E9
:101BB00021F411200AF49FCFA4CF903809F495CFD7
:101BC00001240894970B1BF4D4F30020F3CF792F52
:101BD0001F932F933F934F931124112722273327CD
:101BE0004427552790E2AE17BF078607410730F01C
:101BF000AE1BBF0B860B410B089401C08894551F88
:101C0000221F331F111CAA1FBB1F881F441F9A9538
:101C100051F7F901612D4F913F912F911F9166234B
:101C200032F0550FEE1FFF1F661F7A9543F27FDEDD
:101C30005F91089599239AF0772342F0971748F01F
:101C400029F4AE17BF07860720F031F098948894E6
:101C50000895989408940895189488940895772383
:101C6000C2F7971798F3A9F7EA17FB07680788F3F5
:101C700099F3ECCF0024AF0DB01D0895F195E195D7
:101C8000F0400895F09560957095E195FF4F6F4F86
:101C90007F4F0895FE2FFF0FFF0B6F2F7F2F0895AB
:101CA0006F2F660F660B762F0895EA17E1E009F0B3
:101CB000EE270895EE23E1E009F0EE2708950024D1
:101CC00098E0AA0F001C0E1A10F40E0E01C0A160BD
:101CD0009A95B9F7EA2FA02D08955AD0F0DF0EF4A7
:101CE000E19508950024112490E1AA0FBB1F001C68
:101CF000111C0E1A1F0A18F40E0E1F1E01C0A1603F
:101D00009A9599F7FD01D00108953F934F935F9302
:101D1000002411244427552730E2AA0FBB1F881F37
:101D2000991F001C111C441F551F0E1A1F0A460B39
:101D3000570B28F40E0E1F1E461F571F01C0A1602F
:101D40003A9559F7FD01BC01D001CA015F914F914D
:101D50003F910895E894A7FF02C0A1956894E7FD1C
:101D6000E195ADDFEA2F0EF4E1950895E894B7FF11
:101D700004C0A095B09511966894F7FD7FDFB2DF9F
:101D8000FD010EF47BDF0895C0DFFD01BC01089565
:101D9000E894E7FF02C0E1956894A7FF04C0A1950D
:101DA00000F8039400FA0895ED91FC9111970895BD
:101DB000ED91FD916D917C9113970895ED93FD93B5
:101DC0006D937C930895E881F9816A817B81089500
:101DD000A881B9818A819B810895E883F9836A8308
:101DE0007B8308957A936A93FA93EA9308959A937A
:101DF0008A93BA93AA930895BB27EA0FFB1F029018
:101E00000A921197E1F70895182E862F612D192E49
:101E1000972F712D1B2EBF2FF12D1A2EAE2FE12DD6
:101E20000895F999FECFFF93FFB7F894A1BDB2BD15
:101E3000F89AE0B5FFBFFF910895F99B02C0A895FD
:101E4000FCCF9FB7F894A1BDB2BDF89A80B5E81752
:101E500019F0E0BDFA9AF99A9FBF08953097604053
:101E6000704008955A934A933A932A931A930A9387
:101E700008955D814C813B812A81198108810895F3
:00000001FF
